{
  "_format": "hh-sol-artifact-1",
  "contractName": "DoggieKToken",
  "sourceName": "contracts/DoggieKToken.sol",
  "abi": [
    {
      "inputs": [
        {
          "internalType": "address",
          "name": "initialOwner",
          "type": "address"
        }
      ],
      "stateMutability": "nonpayable",
      "type": "constructor"
    },
    {
      "inputs": [],
      "name": "ERC721EnumerableForbiddenBatchMint",
      "type": "error"
    },
    {
      "inputs": [
        {
          "internalType": "address",
          "name": "sender",
          "type": "address"
        },
        {
          "internalType": "uint256",
          "name": "tokenId",
          "type": "uint256"
        },
        {
          "internalType": "address",
          "name": "owner",
          "type": "address"
        }
      ],
      "name": "ERC721IncorrectOwner",
      "type": "error"
    },
    {
      "inputs": [
        {
          "internalType": "address",
          "name": "operator",
          "type": "address"
        },
        {
          "internalType": "uint256",
          "name": "tokenId",
          "type": "uint256"
        }
      ],
      "name": "ERC721InsufficientApproval",
      "type": "error"
    },
    {
      "inputs": [
        {
          "internalType": "address",
          "name": "approver",
          "type": "address"
        }
      ],
      "name": "ERC721InvalidApprover",
      "type": "error"
    },
    {
      "inputs": [
        {
          "internalType": "address",
          "name": "operator",
          "type": "address"
        }
      ],
      "name": "ERC721InvalidOperator",
      "type": "error"
    },
    {
      "inputs": [
        {
          "internalType": "address",
          "name": "owner",
          "type": "address"
        }
      ],
      "name": "ERC721InvalidOwner",
      "type": "error"
    },
    {
      "inputs": [
        {
          "internalType": "address",
          "name": "receiver",
          "type": "address"
        }
      ],
      "name": "ERC721InvalidReceiver",
      "type": "error"
    },
    {
      "inputs": [
        {
          "internalType": "address",
          "name": "sender",
          "type": "address"
        }
      ],
      "name": "ERC721InvalidSender",
      "type": "error"
    },
    {
      "inputs": [
        {
          "internalType": "uint256",
          "name": "tokenId",
          "type": "uint256"
        }
      ],
      "name": "ERC721NonexistentToken",
      "type": "error"
    },
    {
      "inputs": [
        {
          "internalType": "address",
          "name": "owner",
          "type": "address"
        },
        {
          "internalType": "uint256",
          "name": "index",
          "type": "uint256"
        }
      ],
      "name": "ERC721OutOfBoundsIndex",
      "type": "error"
    },
    {
      "inputs": [
        {
          "internalType": "address",
          "name": "owner",
          "type": "address"
        }
      ],
      "name": "OwnableInvalidOwner",
      "type": "error"
    },
    {
      "inputs": [
        {
          "internalType": "address",
          "name": "account",
          "type": "address"
        }
      ],
      "name": "OwnableUnauthorizedAccount",
      "type": "error"
    },
    {
      "anonymous": false,
      "inputs": [
        {
          "indexed": true,
          "internalType": "address",
          "name": "owner",
          "type": "address"
        },
        {
          "indexed": true,
          "internalType": "address",
          "name": "approved",
          "type": "address"
        },
        {
          "indexed": true,
          "internalType": "uint256",
          "name": "tokenId",
          "type": "uint256"
        }
      ],
      "name": "Approval",
      "type": "event"
    },
    {
      "anonymous": false,
      "inputs": [
        {
          "indexed": true,
          "internalType": "address",
          "name": "owner",
          "type": "address"
        },
        {
          "indexed": true,
          "internalType": "address",
          "name": "operator",
          "type": "address"
        },
        {
          "indexed": false,
          "internalType": "bool",
          "name": "approved",
          "type": "bool"
        }
      ],
      "name": "ApprovalForAll",
      "type": "event"
    },
    {
      "anonymous": false,
      "inputs": [
        {
          "indexed": false,
          "internalType": "uint256",
          "name": "_fromTokenId",
          "type": "uint256"
        },
        {
          "indexed": false,
          "internalType": "uint256",
          "name": "_toTokenId",
          "type": "uint256"
        }
      ],
      "name": "BatchMetadataUpdate",
      "type": "event"
    },
    {
      "anonymous": false,
      "inputs": [
        {
          "indexed": false,
          "internalType": "uint256",
          "name": "_tokenId",
          "type": "uint256"
        }
      ],
      "name": "MetadataUpdate",
      "type": "event"
    },
    {
      "anonymous": false,
      "inputs": [
        {
          "indexed": true,
          "internalType": "address",
          "name": "previousOwner",
          "type": "address"
        },
        {
          "indexed": true,
          "internalType": "address",
          "name": "newOwner",
          "type": "address"
        }
      ],
      "name": "OwnershipTransferred",
      "type": "event"
    },
    {
      "anonymous": false,
      "inputs": [
        {
          "indexed": true,
          "internalType": "address",
          "name": "from",
          "type": "address"
        },
        {
          "indexed": true,
          "internalType": "address",
          "name": "to",
          "type": "address"
        },
        {
          "indexed": true,
          "internalType": "uint256",
          "name": "tokenId",
          "type": "uint256"
        }
      ],
      "name": "Transfer",
      "type": "event"
    },
    {
      "inputs": [
        {
          "internalType": "address",
          "name": "to",
          "type": "address"
        },
        {
          "internalType": "uint256",
          "name": "tokenId",
          "type": "uint256"
        }
      ],
      "name": "approve",
      "outputs": [],
      "stateMutability": "nonpayable",
      "type": "function"
    },
    {
      "inputs": [
        {
          "internalType": "address",
          "name": "owner",
          "type": "address"
        }
      ],
      "name": "balanceOf",
      "outputs": [
        {
          "internalType": "uint256",
          "name": "",
          "type": "uint256"
        }
      ],
      "stateMutability": "view",
      "type": "function"
    },
    {
      "inputs": [
        {
          "internalType": "uint256",
          "name": "tokenId",
          "type": "uint256"
        }
      ],
      "name": "getApproved",
      "outputs": [
        {
          "internalType": "address",
          "name": "",
          "type": "address"
        }
      ],
      "stateMutability": "view",
      "type": "function"
    },
    {
      "inputs": [
        {
          "internalType": "uint256",
          "name": "tokenId",
          "type": "uint256"
        }
      ],
      "name": "getCreationTime",
      "outputs": [
        {
          "internalType": "uint256",
          "name": "",
          "type": "uint256"
        }
      ],
      "stateMutability": "view",
      "type": "function"
    },
    {
      "inputs": [
        {
          "internalType": "uint256",
          "name": "tokenId",
          "type": "uint256"
        }
      ],
      "name": "getCreator",
      "outputs": [
        {
          "internalType": "address",
          "name": "",
          "type": "address"
        }
      ],
      "stateMutability": "view",
      "type": "function"
    },
    {
      "inputs": [
        {
          "internalType": "address",
          "name": "owner",
          "type": "address"
        },
        {
          "internalType": "address",
          "name": "operator",
          "type": "address"
        }
      ],
      "name": "isApprovedForAll",
      "outputs": [
        {
          "internalType": "bool",
          "name": "",
          "type": "bool"
        }
      ],
      "stateMutability": "view",
      "type": "function"
    },
    {
      "inputs": [],
      "name": "name",
      "outputs": [
        {
          "internalType": "string",
          "name": "",
          "type": "string"
        }
      ],
      "stateMutability": "view",
      "type": "function"
    },
    {
      "inputs": [],
      "name": "owner",
      "outputs": [
        {
          "internalType": "address",
          "name": "",
          "type": "address"
        }
      ],
      "stateMutability": "view",
      "type": "function"
    },
    {
      "inputs": [
        {
          "internalType": "uint256",
          "name": "tokenId",
          "type": "uint256"
        }
      ],
      "name": "ownerOf",
      "outputs": [
        {
          "internalType": "address",
          "name": "",
          "type": "address"
        }
      ],
      "stateMutability": "view",
      "type": "function"
    },
    {
      "inputs": [],
      "name": "renounceOwnership",
      "outputs": [],
      "stateMutability": "nonpayable",
      "type": "function"
    },
    {
      "inputs": [
        {
          "internalType": "address",
          "name": "to",
          "type": "address"
        },
        {
          "internalType": "string",
          "name": "uri",
          "type": "string"
        }
      ],
      "name": "safeMint",
      "outputs": [],
      "stateMutability": "nonpayable",
      "type": "function"
    },
    {
      "inputs": [
        {
          "internalType": "address",
          "name": "from",
          "type": "address"
        },
        {
          "internalType": "address",
          "name": "to",
          "type": "address"
        },
        {
          "internalType": "uint256",
          "name": "tokenId",
          "type": "uint256"
        }
      ],
      "name": "safeTransferFrom",
      "outputs": [],
      "stateMutability": "nonpayable",
      "type": "function"
    },
    {
      "inputs": [
        {
          "internalType": "address",
          "name": "from",
          "type": "address"
        },
        {
          "internalType": "address",
          "name": "to",
          "type": "address"
        },
        {
          "internalType": "uint256",
          "name": "tokenId",
          "type": "uint256"
        },
        {
          "internalType": "bytes",
          "name": "data",
          "type": "bytes"
        }
      ],
      "name": "safeTransferFrom",
      "outputs": [],
      "stateMutability": "nonpayable",
      "type": "function"
    },
    {
      "inputs": [
        {
          "internalType": "address",
          "name": "operator",
          "type": "address"
        },
        {
          "internalType": "bool",
          "name": "approved",
          "type": "bool"
        }
      ],
      "name": "setApprovalForAll",
      "outputs": [],
      "stateMutability": "nonpayable",
      "type": "function"
    },
    {
      "inputs": [
        {
          "internalType": "bytes4",
          "name": "interfaceId",
          "type": "bytes4"
        }
      ],
      "name": "supportsInterface",
      "outputs": [
        {
          "internalType": "bool",
          "name": "",
          "type": "bool"
        }
      ],
      "stateMutability": "view",
      "type": "function"
    },
    {
      "inputs": [],
      "name": "symbol",
      "outputs": [
        {
          "internalType": "string",
          "name": "",
          "type": "string"
        }
      ],
      "stateMutability": "view",
      "type": "function"
    },
    {
      "inputs": [
        {
          "internalType": "uint256",
          "name": "index",
          "type": "uint256"
        }
      ],
      "name": "tokenByIndex",
      "outputs": [
        {
          "internalType": "uint256",
          "name": "",
          "type": "uint256"
        }
      ],
      "stateMutability": "view",
      "type": "function"
    },
    {
      "inputs": [
        {
          "internalType": "address",
          "name": "owner",
          "type": "address"
        },
        {
          "internalType": "uint256",
          "name": "index",
          "type": "uint256"
        }
      ],
      "name": "tokenOfOwnerByIndex",
      "outputs": [
        {
          "internalType": "uint256",
          "name": "",
          "type": "uint256"
        }
      ],
      "stateMutability": "view",
      "type": "function"
    },
    {
      "inputs": [
        {
          "internalType": "uint256",
          "name": "tokenId",
          "type": "uint256"
        }
      ],
      "name": "tokenURI",
      "outputs": [
        {
          "internalType": "string",
          "name": "",
          "type": "string"
        }
      ],
      "stateMutability": "view",
      "type": "function"
    },
    {
      "inputs": [],
      "name": "totalSupply",
      "outputs": [
        {
          "internalType": "uint256",
          "name": "",
          "type": "uint256"
        }
      ],
      "stateMutability": "view",
      "type": "function"
    },
    {
      "inputs": [
        {
          "internalType": "address",
          "name": "from",
          "type": "address"
        },
        {
          "internalType": "address",
          "name": "to",
          "type": "address"
        },
        {
          "internalType": "uint256",
          "name": "tokenId",
          "type": "uint256"
        }
      ],
      "name": "transferFrom",
      "outputs": [],
      "stateMutability": "nonpayable",
      "type": "function"
    },
    {
      "inputs": [
        {
          "internalType": "address",
          "name": "newOwner",
          "type": "address"
        }
      ],
      "name": "transferOwnership",
      "outputs": [],
      "stateMutability": "nonpayable",
      "type": "function"
    }
  ],
  "bytecode": "0x608060405234801561001057600080fd5b50604051611b53380380611b5383398101604081905261002f91610120565b806040518060400160405280600c81526020016b2237b3b3b4b2a5aa37b5b2b760a11b815250604051806040016040528060038152602001621112d560ea1b815250816000908161008091906101ef565b50600161008d82826101ef565b5050506001600160a01b0381166100be57604051631e4fbdf760e01b81526000600482015260240160405180910390fd5b6100c7816100ce565b50506102ad565b600b80546001600160a01b038381166001600160a01b0319831681179093556040519116919082907f8be0079c531659141344cd1fd0a4f28419497f9722a3daafe3b4186f6b6457e090600090a35050565b60006020828403121561013257600080fd5b81516001600160a01b038116811461014957600080fd5b9392505050565b634e487b7160e01b600052604160045260246000fd5b600181811c9082168061017a57607f821691505b60208210810361019a57634e487b7160e01b600052602260045260246000fd5b50919050565b601f8211156101ea57806000526020600020601f840160051c810160208510156101c75750805b601f840160051c820191505b818110156101e757600081556001016101d3565b50505b505050565b81516001600160401b0381111561020857610208610150565b61021c816102168454610166565b846101a0565b6020601f82116001811461025057600083156102385750848201515b600019600385901b1c1916600184901b1784556101e7565b600084815260208120601f198516915b828110156102805787850151825560209485019460019092019101610260565b508482101561029e5786840151600019600387901b60f8161c191681555b50505050600190811b01905550565b611897806102bc6000396000f3fe608060405234801561001057600080fd5b50600436106101425760003560e01c8063715018a6116100b8578063b88d4fde1161007c578063b88d4fde1461029c578063c87b56dd146102af578063d204c45e146102c2578063d48e638a146102d5578063e985e9c5146102fe578063f2fde38b1461031157600080fd5b8063715018a6146102485780638da5cb5b1461025057806395d89b411461026157806397ec23cb14610269578063a22cb4651461028957600080fd5b806323b872dd1161010a57806323b872dd146101d65780632f745c59146101e957806342842e0e146101fc5780634f6ccce71461020f5780636352211e1461022257806370a082311461023557600080fd5b806301ffc9a71461014757806306fdde031461016f578063081812fc14610184578063095ea7b3146101af57806318160ddd146101c4575b600080fd5b61015a610155366004611316565b610324565b60405190151581526020015b60405180910390f35b610177610335565b6040516101669190611383565b610197610192366004611396565b6103c7565b6040516001600160a01b039091168152602001610166565b6101c26101bd3660046113cb565b6103f0565b005b6008545b604051908152602001610166565b6101c26101e43660046113f5565b6103ff565b6101c86101f73660046113cb565b61048f565b6101c261020a3660046113f5565b6104f4565b6101c861021d366004611396565b610514565b610197610230366004611396565b61056d565b6101c8610243366004611432565b610578565b6101c26105c0565b600b546001600160a01b0316610197565b6101776105d4565b6101c8610277366004611396565b6000908152600e602052604090205490565b6101c261029736600461144d565b6105e3565b6101c26102aa366004611519565b6105ee565b6101776102bd366004611396565b610606565b6101c26102d0366004611595565b610611565b6101976102e3366004611396565b6000908152600d60205260409020546001600160a01b031690565b61015a61030c3660046115f7565b610673565b6101c261031f366004611432565b6106a1565b600061032f826106df565b92915050565b6060600080546103449061162a565b80601f01602080910402602001604051908101604052809291908181526020018280546103709061162a565b80156103bd5780601f10610392576101008083540402835291602001916103bd565b820191906000526020600020905b8154815290600101906020018083116103a057829003601f168201915b5050505050905090565b60006103d282610704565b506000828152600460205260409020546001600160a01b031661032f565b6103fb82823361073d565b5050565b6001600160a01b03821661042e57604051633250574960e11b8152600060048201526024015b60405180910390fd5b600061043b83833361074a565b9050836001600160a01b0316816001600160a01b031614610489576040516364283d7b60e01b81526001600160a01b0380861660048301526024820184905282166044820152606401610425565b50505050565b600061049a83610578565b82106104cb5760405163295f44f760e21b81526001600160a01b038416600482015260248101839052604401610425565b506001600160a01b03919091166000908152600660209081526040808320938352929052205490565b61050f838383604051806020016040528060008152506105ee565b505050565b600061051f60085490565b82106105485760405163295f44f760e21b81526000600482015260248101839052604401610425565b6008828154811061055b5761055b611664565b90600052602060002001549050919050565b600061032f82610704565b60006001600160a01b0382166105a4576040516322718ad960e21b815260006004820152602401610425565b506001600160a01b031660009081526003602052604090205490565b6105c861075f565b6105d2600061078c565b565b6060600180546103449061162a565b6103fb3383836107de565b6105f98484846103ff565b610489338585858561087d565b606061032f826109a8565b61061961075f565b600c80546000918261062a83611690565b91905055905061063a8382610ab1565b6106448183610acb565b6000908152600d6020908152604080832080546001600160a01b03191633179055600e90915290204290555050565b6001600160a01b03918216600090815260056020908152604080832093909416825291909152205460ff1690565b6106a961075f565b6001600160a01b0381166106d357604051631e4fbdf760e01b815260006004820152602401610425565b6106dc8161078c565b50565b60006001600160e01b03198216632483248360e11b148061032f575061032f82610b1b565b6000818152600260205260408120546001600160a01b03168061032f57604051637e27328960e01b815260048101849052602401610425565b61050f8383836001610b40565b6000610757848484610c46565b949350505050565b600b546001600160a01b031633146105d25760405163118cdaa760e01b8152336004820152602401610425565b600b80546001600160a01b038381166001600160a01b0319831681179093556040519116919082907f8be0079c531659141344cd1fd0a4f28419497f9722a3daafe3b4186f6b6457e090600090a35050565b6001600160a01b03821661081057604051630b61174360e31b81526001600160a01b0383166004820152602401610425565b6001600160a01b03838116600081815260056020908152604080832094871680845294825291829020805460ff191686151590811790915591519182527f17307eab39ab6107e8899845ad3d59bd9653f200f220920489ca2b5937696c31910160405180910390a3505050565b6001600160a01b0383163b156109a157604051630a85bd0160e11b81526001600160a01b0384169063150b7a02906108bf9088908890879087906004016116a9565b6020604051808303816000875af19250505080156108fa575060408051601f3d908101601f191682019092526108f7918101906116e6565b60015b610963573d808015610928576040519150601f19603f3d011682016040523d82523d6000602084013e61092d565b606091505b50805160000361095b57604051633250574960e11b81526001600160a01b0385166004820152602401610425565b805181602001fd5b6001600160e01b03198116630a85bd0160e11b1461099f57604051633250574960e11b81526001600160a01b0385166004820152602401610425565b505b5050505050565b60606109b382610704565b506000828152600a6020526040812080546109cd9061162a565b80601f01602080910402602001604051908101604052809291908181526020018280546109f99061162a565b8015610a465780601f10610a1b57610100808354040283529160200191610a46565b820191906000526020600020905b815481529060010190602001808311610a2957829003601f168201915b505050505090506000610a6460408051602081019091526000815290565b90508051600003610a76575092915050565b815115610aa8578082604051602001610a90929190611703565b60405160208183030381529060405292505050919050565b61075784610d13565b6103fb828260405180602001604052806000815250610d88565b6000828152600a60205260409020610ae38282611779565b506040518281527ff8e1a15aba9398e019f0b49df1a4fde98ee17ae345cb5f6b5e2c27f5033e8ce79060200160405180910390a15050565b60006001600160e01b0319821663780e9d6360e01b148061032f575061032f82610da0565b8080610b5457506001600160a01b03821615155b15610c16576000610b6484610704565b90506001600160a01b03831615801590610b905750826001600160a01b0316816001600160a01b031614155b8015610ba35750610ba18184610673565b155b15610bcc5760405163a9fbf51f60e01b81526001600160a01b0384166004820152602401610425565b8115610c145783856001600160a01b0316826001600160a01b03167f8c5be1e5ebec7d5bd14f71427d1e84f3dd0314c0f7b2291e5b200ac8c7c3b92560405160405180910390a45b505b5050600090815260046020526040902080546001600160a01b0319166001600160a01b0392909216919091179055565b600080610c54858585610df0565b90506001600160a01b038116610cb157610cac84600880546000838152600960205260408120829055600182018355919091527ff3f7a9fe364faab93b216da50a3214154f22a0a2b415b23a84c8169e8b636ee30155565b610cd4565b846001600160a01b0316816001600160a01b031614610cd457610cd48185610ee9565b6001600160a01b038516610cf057610ceb84610f6a565b610757565b846001600160a01b0316816001600160a01b031614610757576107578585611019565b6060610d1e82610704565b506000610d3660408051602081019091526000815290565b90506000815111610d565760405180602001604052806000815250610d81565b80610d6084611069565b604051602001610d71929190611703565b6040516020818303038152906040525b9392505050565b610d9283836110fc565b61050f33600085858561087d565b60006001600160e01b031982166380ac58cd60e01b1480610dd157506001600160e01b03198216635b5e139f60e01b145b8061032f57506301ffc9a760e01b6001600160e01b031983161461032f565b6000828152600260205260408120546001600160a01b0390811690831615610e1d57610e1d818486611161565b6001600160a01b03811615610e5b57610e3a600085600080610b40565b6001600160a01b038116600090815260036020526040902080546000190190555b6001600160a01b03851615610e8a576001600160a01b0385166000908152600360205260409020805460010190555b60008481526002602052604080822080546001600160a01b0319166001600160a01b0389811691821790925591518793918516917fddf252ad1be2c89b69c2b068fc378daa952ba7f163c4a11628f55a4df523b3ef91a4949350505050565b6000610ef483610578565b6000838152600760209081526040808320546001600160a01b0388168452600690925290912091925090818314610f4b57600083815260208281526040808320548584528184208190558352600790915290208290555b6000938452600760209081526040808620869055938552525081205550565b600854600090610f7c90600190611838565b60008381526009602052604081205460088054939450909284908110610fa457610fa4611664565b906000526020600020015490508060088381548110610fc557610fc5611664565b6000918252602080832090910192909255828152600990915260408082208490558582528120556008805480610ffd57610ffd61184b565b6001900381819060005260206000200160009055905550505050565b6000600161102684610578565b6110309190611838565b6001600160a01b039093166000908152600660209081526040808320868452825280832085905593825260079052919091209190915550565b60606000611076836111c5565b600101905060008167ffffffffffffffff81111561109657611096611489565b6040519080825280601f01601f1916602001820160405280156110c0576020820181803683370190505b5090508181016020015b600019016f181899199a1a9b1b9c1cb0b131b232b360811b600a86061a8153600a85049450846110ca57509392505050565b6001600160a01b03821661112657604051633250574960e11b815260006004820152602401610425565b60006111348383600061074a565b90506001600160a01b0381161561050f576040516339e3563760e11b815260006004820152602401610425565b61116c83838361129d565b61050f576001600160a01b03831661119a57604051637e27328960e01b815260048101829052602401610425565b60405163177e802f60e01b81526001600160a01b038316600482015260248101829052604401610425565b60008072184f03e93ff9f4daa797ed6e38ed64bf6a1f0160401b83106112045772184f03e93ff9f4daa797ed6e38ed64bf6a1f0160401b830492506040015b6d04ee2d6d415b85acef81000000008310611230576d04ee2d6d415b85acef8100000000830492506020015b662386f26fc10000831061124e57662386f26fc10000830492506010015b6305f5e1008310611266576305f5e100830492506008015b612710831061127a57612710830492506004015b6064831061128c576064830492506002015b600a831061032f5760010192915050565b60006001600160a01b038316158015906107575750826001600160a01b0316846001600160a01b031614806112d757506112d78484610673565b806107575750506000908152600460205260409020546001600160a01b03908116911614919050565b6001600160e01b0319811681146106dc57600080fd5b60006020828403121561132857600080fd5b8135610d8181611300565b60005b8381101561134e578181015183820152602001611336565b50506000910152565b6000815180845261136f816020860160208601611333565b601f01601f19169290920160200192915050565b602081526000610d816020830184611357565b6000602082840312156113a857600080fd5b5035919050565b80356001600160a01b03811681146113c657600080fd5b919050565b600080604083850312156113de57600080fd5b6113e7836113af565b946020939093013593505050565b60008060006060848603121561140a57600080fd5b611413846113af565b9250611421602085016113af565b929592945050506040919091013590565b60006020828403121561144457600080fd5b610d81826113af565b6000806040838503121561146057600080fd5b611469836113af565b91506020830135801515811461147e57600080fd5b809150509250929050565b634e487b7160e01b600052604160045260246000fd5b60008067ffffffffffffffff8411156114ba576114ba611489565b50604051601f19601f85018116603f0116810181811067ffffffffffffffff821117156114e9576114e9611489565b60405283815290508082840185101561150157600080fd5b83836020830137600060208583010152509392505050565b6000806000806080858703121561152f57600080fd5b611538856113af565b9350611546602086016113af565b925060408501359150606085013567ffffffffffffffff81111561156957600080fd5b8501601f8101871361157a57600080fd5b6115898782356020840161149f565b91505092959194509250565b600080604083850312156115a857600080fd5b6115b1836113af565b9150602083013567ffffffffffffffff8111156115cd57600080fd5b8301601f810185136115de57600080fd5b6115ed8582356020840161149f565b9150509250929050565b6000806040838503121561160a57600080fd5b611613836113af565b9150611621602084016113af565b90509250929050565b600181811c9082168061163e57607f821691505b60208210810361165e57634e487b7160e01b600052602260045260246000fd5b50919050565b634e487b7160e01b600052603260045260246000fd5b634e487b7160e01b600052601160045260246000fd5b6000600182016116a2576116a261167a565b5060010190565b6001600160a01b03858116825284166020820152604081018390526080606082018190526000906116dc90830184611357565b9695505050505050565b6000602082840312156116f857600080fd5b8151610d8181611300565b60008351611715818460208801611333565b835190830190611729818360208801611333565b01949350505050565b601f82111561050f57806000526020600020601f840160051c810160208510156117595750805b601f840160051c820191505b818110156109a15760008155600101611765565b815167ffffffffffffffff81111561179357611793611489565b6117a7816117a1845461162a565b84611732565b6020601f8211600181146117db57600083156117c35750848201515b600019600385901b1c1916600184901b1784556109a1565b600084815260208120601f198516915b8281101561180b57878501518255602094850194600190920191016117eb565b50848210156118295786840151600019600387901b60f8161c191681555b50505050600190811b01905550565b8181038181111561032f5761032f61167a565b634e487b7160e01b600052603160045260246000fdfea2646970667358221220bccc3e067db2dcecb713d2c7cf29c66cb5d2e402ea6d481d9584eb6fed35361c64736f6c634300081b0033",
  "linkReferences": {},
  "deployedLinkReferences": {}
}